:020000040800F2
:100000006007001029020008D108000871080008E4
:10001000CD08000875030008EF0E0008000000007E
:100020000000000000000000000000004F0B00086E
:10003000910700080000000061090008650C000835
:10004000430200084302000843020008430200087C
:10005000430200084302000843020008430200086C
:10006000430200084302000843020008430200085C
:100070004302000843020008430200087903000815
:10008000430200084302000843020008430200083C
:10009000430200084302000843020008430200082C
:1000A000430200084302000843020008430200081C
:1000B000430200084302000843020008430200080C
:1000C00043020008430200084302000843020008FC
:1000D00043020008D10C0008430200084302000854
:1000E00043020008430200084302000843020008DC
:1000F00043020008430200084302000843020008CC
:1001000043020008430200084302000843020008BB
:1001100043020008430200084302000843020008AB
:10012000430200084302000843020008430200089B
:10013000430200084302000843020008430200088B
:10014000430200084302000843020008430200087B
:10015000430200084302000843020008430200086B
:10016000430200084302000843020008430200085B
:10017000430200084302000843020008430200084B
:10018000430200084302000800F002F800F03CF8C7
:100190000AA090E8000C82448344AAF10107DA45E2
:1001A00001D100F031F8AFF2090EBAE80F0013F0F8
:1001B000010F18BFFB1A43F001031847B4130000E6
:1001C000E4130000103A24BF78C878C1FAD8520767
:1001D00024BF30C830C144BF04680C6070470000C1
:1001E0000023002400250026103A28BF78C1FBD840
:1001F000520728BF30C148BF0B6070471FB501F0E0
:10020000B1F91FBD10B510BD00F06EF81146FFF733
:10021000F5FF01F01DF900F0A0F803B4FFF7F2FFBD
:1002200003BC00F066FE000009488047094800470B
:10023000FEE7FEE7FEE7FEE7FEE7FEE7FEE7FEE796
:10024000FEE7FEE704480549054A064B70470000F3
:10025000690C0008890100086001001060070010A7
:100260006003001060030010704700000FB40449E1
:1002700010B503AA029800F009F810BC5DF814FB51
:10028000080000107047704770477047074B70B503
:100290000D467B4400F011F80446284600F020F893
:1002A00010B14FF0FF3070BD204670BD830D0000CF
:1002B00001694A1C02610878704700B58FB0CDE92A
:1002C00001310021059105497944CDE9031011461A
:1002D000684600F02EF80FB000BD0000E5FFFFFFFC
:1002E000007B00F080007047754600F03FF8AE4696
:1002F00005006946534620F00700854618B020B532
:10030000FFF7A0FFBDE820404FF000064FF00007C8
:100310004FF000084FF0000B21F00701AC46ACE8AD
:10032000C009ACE8C009ACE8C009ACE8C0098D461A
:1003300070472DE9F04106460024D6E90170F568C2
:100340008046304603E04146B847641C3046A84723
:100350000028F8D12046BDE8F08110B50446AFF37F
:1003600000802046BDE81040FFF757BF00487047A7
:10037000FC00001000BFFEE710B50949094800F075
:1003800057F958B10649074800F02CF84FF480514E
:10039000054800F06BFA01200449087010BD000008
:1003A0002080002070600240000402400000001025
:1003B0000246094B9A4201D2084801E0064810382B
:1003C00001F000531BB1064B0B40C36002E0044B2D
:1003D0000B408360704700001064024000600240E0
:1003E0007D0F7D0F0246094B9A4201D2084801E079
:1003F0000648103801F000531BB1064B0B40C36098
:1004000002E0044B0B408360704700001064024020
:10041000006002407D0F7D0F21B1026842F00102B1
:10042000026003E0026822F00102026070470000EF
:1004300030B591B004460D460121480500F092FA0E
:100440001E4800F03FF800BF1C4800F0E7F8002805
:10045000FAD101901A480290039440200490059527
:10046000002006904FF480600790400008908000C4
:10047000099000200A904FF400300B9000200C905F
:100480000D900E900F9001A90C4800F021F9012267
:1004900010210A4800F0FEF80F208DF840000020DF
:1004A0008DF8410002208DF8420001208DF84300B4
:1004B00010A800F00FFA11B030BD000070600240CB
:1004C0000C380040016821F0010101600021016049
:1004D00041608160C1600161212141614A498842D6
:1004E00004D13D21484A103A91608CE046491831C8
:1004F000884205D14FF47461434A103A916082E01A
:1005000041493031884205D14FF474113E4A103AC6
:10051000916078E03C494831884205D14FF07461E0
:10052000394A103A91606EE037496031884204D10F
:100530003649354A103AD16065E03349783188420E
:1005400004D13349304A103AD1605CE02E499031F1
:10055000884204D12F492C4A103AD16053E02A49ED
:10056000A831884205D14FF03D51274A103AD16059
:1005700049E02949884204D13D21274A083A1160BF
:1005800041E025491831884205D14FF47461224A6F
:10059000083A116037E020493031884205D14FF4E4
:1005A00074111D4A083A11602DE01B4948318842F8
:1005B00005D14FF07461184A083A116023E01649DA
:1005C0006031884204D11149134A121F11601AE0A8
:1005D00011497831884204D10D490F4A121F116028
:1005E00011E00D499031884204D10A490A4A121F8C
:1005F000116008E00849A831884204D14FF03D510C
:10060000054A121F11607047106002403D00002033
:10061000400F002000003D201064024001460020F1
:100620000A6802F001020AB1012000E000207047D0
:1006300070B50246002000240025124EB24201D2BD
:10064000114B01E00F4B103B104E0E4036B11E26F1
:1006500006EAD124166806EA040502E0566906F0A7
:10066000800501F000560EB15C6800E01C68084E81
:10067000344004EA010616B10DB1012000E000206B
:1006800070BD000010640240006002403C0F3C0F4F
:100690007D0F7D0F10B501F080034BB122B143698E
:1006A00043F08003436103E0436923F08003436127
:1006B00080290BD02AB1036801F01E042343036094
:1006C00004E0036801F01E04A343036010BD0000B2
:1006D00010B500220268134B1A40CC680B68234304
:1006E0004C6923438C692343CC6923430C6A23431D
:1006F0004C6A23438C6A23434C6B23438C6B234308
:100700001A430260426922F00702D1E90B34234305
:100710001A4342610B6943604B6883608B68C36016
:1007200010BD00003F801CF04160704710B50446CA
:1007300000211248FFF770FE4FF461410F48FFF7A8
:10074000F3FF0F4800880F490C48FFF731FE4FF4C4
:1007500080510D4800F088F84FF400610A4800F01D
:1007600085F801210548FFF757FE00BF07480078CC
:100770000028FBD000200549087010BD70600240C1
:100780000C380040208000200004024000000010CF
:100790007047F0B50A4600210023002400BF3DE069
:1007A000012505FA01F3156805EA03049C4234D1DA
:1007B00005684F000326BE40B543056015794E001D
:1007C000B5400668354305601579012D02D01579CD
:1007D000022D16D185684F000326BE40B5438560C3
:1007E00055794E00B54086683543856045680126D9
:1007F0008E40B5434560456896798E40B6B2354324
:100800004560C5684F000326BE40B543C560D57935
:100810004E00B540C6683543C560491C1029BFD39A
:10082000F0BDF0B5002300244D07ED0E02FA05F3EC
:10083000CE1000F1200555F826504E07F70E0F2672
:10084000BE40B543CF1000F1200646F82750CE1029
:1008500000F1200555F8265045EA0304CE1000F1BA
:10086000200545F82640F0BD41837047018370475D
:1008700000BFFEE710B500F04DFC00F075FC00F085
:1008800089FC10BD1CB50121084600F06BF8022060
:10089000009001208DF8040000208DF80600032050
:1008A0008DF8050001208DF8070069460348FFF721
:1008B00070FF02210148FFF7D9FF1CBD0000024074
:1008C00010B50446204600F077FB10BD00BFFEE7E0
:1008D0007047000070B5002100230F22C4781CB3BC
:1008E000174C246804F4E064C4F5E064C4F3072101
:1008F000C1F10404E3B20A4144789C40E1B2847837
:10090000144021430C07210E0E4C057861550478E4
:1009100004F01F050124AC4005786D11AD0005F110
:10092000E025C5F8004109E0047804F01F05012422
:10093000AC40054D0678761145F8264070BD0000A4
:100940000CED00E000E400E080E100E0024901433A
:10095000024A1160704700000000FA050CED00E04B
:100960007047000029B1064A12680243044B1A601E
:1009700004E0034A12688243014B1A60704700008A
:100980003038024029B1064A12680243044B1A600B
:1009900004E0034A12688243014B1A60704700006A
:1009A0004038024029B1064A12680243044B1A60DB
:1009B00004E0034A12688243014B1A60704700004A
:1009C0002038024029B1064A12680243044B1A60DB
:1009D00004E0034A12688243014B1A60704700002A
:1009E00044380240F0B500210022002402250026F0
:1009F0000223324F3F6807F00C0121B1042905D0D2
:100A0000082937D105E02E4F076036E02D4F0760EB
:100A100033E02A4F3F1F3F68C7F38056274F3F1FE1
:100A20003F6807F03F036EB1264FB7FBF3F7DFF8DF
:100A30008CC0ACF1040CDCF800C0CCF3881C07FBC4
:100A40000CF40CE01E4FB7FBF3F7DFF870C0ACF10D
:100A5000040CDCF800C0CCF3881C07FB0CF4174F27
:100A60003F1F3F68C7F301477F1C7D00B4FBF5F7CC
:100A7000076002E0124F076000BF00BF0F4F3F68E2
:100A800007F0F0010909104F7A5C0768D74047600A
:100A90000A4F3F6807F4E051890A0B4F7A5C4768B8
:100AA000D7408760054F3F6807F46041490B064F08
:100AB0007A5C4768D740C760F0BD00000838024044
:100AC0000024F40000127A000E00001021B1028808
:100AD00042F04002028004E002884FF6BF731A40E1
:100AE000028070471AB183880B43838002E08388B9
:100AF0008B43838070470246002013890B400BB163
:100B0000012000E0002070470146888970478181FC
:100B1000704710B50022028802F441520B884C88BD
:100B200023438C882343CC8823430C8923434C895B
:100B300023438C892343CC8923431A430280838B2C
:100B40004FF2FF74234083830B8A038210BD7047EA
:100B50000CB50020019000903448006840F48030CB
:100B60003249086000BF3148006800F4003000904E
:100B70000198401C0190009818B90198B0F5A04F59
:100B8000F1D12A48006800F4003010B10120009033
:100B900001E0002000900098012846D12348403011
:100BA000006840F0805021494031086020480068CA
:100BB00040F440401E4908601C48083000681B494A
:100BC000083108600846006840F4004008600846A4
:100BD000006840F4A05008601648091F0860081F0C
:100BE000006840F08070091F086000BF0F4800686F
:100BF00000F000700028F9D040F205700E4908603E
:100C00000A480830006820F00300084908310860ED
:100C10000846006840F00200086000BF0348083042
:100C2000006800F00C000828F8D10CBD0038024024
:100C30000070004008544007003C0240042808D1DE
:100C40004FF0E021096941F004014FF0E022116109
:100C500007E04FF0E021096921F004014FF0E022A4
:100C6000116170477047000010B51548006840F4E6
:100C70007000134908601348006840F001001149F2
:100C8000086000200F49083108600E4800680E49CE
:100C900008400C4908600D48091D0860081F0068DD
:100CA00020F48020091F0860002006490C310860EC
:100CB000FFF74EFF4FF0006001498039086010BD1A
:100CC00088ED00E000380240FFFFF6FE10300024FF
:100CD00010B540F225511D4800F04AF810B31B48EA
:100CE00000F000F9C4B21A48008800F40040C8B906
:100CF0001748008800F4804060B10A2C03D000201F
:100D00001349088020E01248008840F40040104950
:100D1000088019E00D2C06D10D48008840F4804071
:100D20000B49088010E00A480088C0F30D0009490B
:100D30000C5407480088401C054908800846008874
:100D4000C72801DD0020088010BD00000010014010
:100D50000C0000103200001021B1828942F40052D0
:100D6000828104E082894DF6FF731A4082817047C8
:100D700070B50246002400230025002040F66A16C4
:100D8000B14200D100BFC1F3421501F01F0301269B
:100D900006FA03F3012D02D19689334006E0022DB5
:100DA00002D1168A334001E0968A33400C120126A4
:100DB00006FA04F41688344013B10CB1012000E0A7
:100DC000002070BDF0B50346002400260025002059
:100DD00040F66A17B94200D100BF1846C1F3421469
:100DE00001F01F06012707FA06F5012C01D10C308E
:100DF00004E0022C01D1103000E014301AB1076871
:100E00002F43076002E00768AF430760F0BD0000B2
:100E10002DE9FF4705460E460024A14600BFA04627
:100E2000B08900B100BF2C8A24F44054F0880443F8
:100E30002C82AC8941F20C608443B088318908432C
:100E4000718908430443AC81AC8A24F44074B089AE
:100E50000443AC826846FFF7C5FD2048854202D0B6
:100E60001F48854202D1DDF80C9001E0DDF80890C2
:100E7000A88900F4004040B109EBC90000EB09105B
:100E800031684900B0FBF1F707E009EBC90000EB5E
:100E9000091031688900B0FBF1F76420B7FBF0F06E
:100EA00004012009642101FB1078A88900F40040A6
:100EB00040B1322000EBC800B0FBF1F000F00700B9
:100EC000044308E0322000EB08106421B0FBF1F08D
:100ED00000F00F0004432C81BDE8FF8700100140A3
:100EE0000014014001468888C0F30800704700BF25
:100EF000FEE700BF7047000010B504466FF0040025
:100F0000FFF79CFEE11704EB5171C1F3C701074ADB
:100F100011701046007800EB4001C1EBC0104FF695
:100F2000FF7101EAC0000249088010BD02000010F4
:100F30000400001070B504464FF4077094FBF0F005
:100F4000C6B24FF4077094FBF0F100FB114085B27C
:100F500005E04FF4077000F009F8701EC6B2002ECD
:100F6000F7D115B1284600F001F870BD0146114ACD
:100F700012884A434FF0E0235A6100229A611A46D0
:100F8000126942F001021A6100BF4FF0E0221069BD
:100F900000F001021AB100F48032002AF5D04FF0BF
:100FA000E022126922F001024FF0E0231A610022D0
:100FB0009A6170470400001070B50546002400BF18
:100FC00003E0124820F81450641CB4F5614FF8DBBC
:100FD00002210F48FFF748FCF0231A46002108467B
:100FE00000F0ADF9102000F0D3F9012202210948E8
:100FF000FFF778FD4FF46140FFF798FB082000F001
:10100000C7F902210248FFF731FC70BD0000002043
:10101000000002400038004000BF054A128802F07C
:101020004002002AF9D0C2B2014B9A8070470000FA
:10103000001001401CB501210220FFF793FC0121A3
:101040008803FFF79FFC4FF42040009002208DF8AA
:10105000040000208DF8060002208DF80500012014
:101060008DF8070069461A48FFF793FB05220D210A
:101070001748FFF7D6FB05220F211548FFF7D1FBD4
:1010800001218803FFF78EFC00214FF48040FFF719
:1010900089FC00200F4908804FF4827048800020AE
:1010A00088800220C88001200881400248810020F9
:1010B0008881C881072008820748FFF72AFD01219F
:1010C0000548FFF703FDFF2000F008F81CBD0000F5
:1010D00000040240200000100038004010B5044613
:1010E00000BF02210A48FFF706FD0028F9D021467B
:1010F0000748FFF70CFD00BF01210548FFF7FBFC87
:101100000028F9D00248FFF7FFFCC0B210BD000074
:10111000003800401CB501210220FFF723FC4FF4EA
:10112000B840009001208DF8040000208DF80600E2
:1011300003208DF8050001208DF807006946084856
:10114000FFF727FB4FF480410548FFF78FFBFFF7C0
:1011500071FF4FF461410348FFF76AF91CBD0000BD
:10116000000402400000002010B54FF480610848E0
:10117000FFF77AFB4FF47A70FFF7DCFE4FF48061E3
:101180000348FFF773FB6420FFF7D4FE10BD000097
:101190000004024010B54FF47A70FFF7CBFE112027
:1011A00000F03EF97820FFF7C5FE3A2000F038F94C
:1011B000052000F01DF9C52000F032F91A2000F0DA
:1011C00017F9362000F02CF9002000F011F9B220B8
:1011D00000F026F9052000F00BF9052000F008F9D1
:1011E000002000F005F9332000F002F9332000F070
:1011F000FFF8B72000F014F9052000F0F9F8BB2043
:1012000000F00EF93F2000F0F3F8C02000F008F9DC
:101210002C2000F0EDF8C22000F002F9012000F0CF
:10122000E7F8C32000F0FCF80F2000F0E1F8C4203C
:1012300000F0F6F8202000F0DBF8C62000F0F0F80F
:10124000012000F0D5F8D02000F0EAF8A42000F04A
:10125000CFF8A12000F0CCF8E82000F0E1F803205E
:1012600000F0C6F8E92000F0DBF8092000F0C0F833
:10127000092000F0BDF8082000F0BAF8E02000F0E6
:10128000CFF8D02000F0B4F8052000F0B1F8092024
:1012900000F0AEF8092000F0ABF8082000F0A8F844
:1012A000142000F0A5F8282000F0A2F8332000F068
:1012B0009FF83F2000F09CF8072000F099F81320D9
:1012C00000F096F8142000F093F8282000F090F831
:1012D000302000F08DF8E12000F0A2F8D02000F0DE
:1012E00087F8052000F084F8092000F081F8092033
:1012F00000F07EF8082000F07BF8032000F078F87A
:10130000242000F075F8322000F072F8322000F04E
:101310006FF83B2000F06CF8142000F069F81320FF
:1013200000F066F8282000F063F82F2000F060F845
:10133000212000F075F8292000F072F810BD2DE989
:10134000F04104460D4616461F462A2000F068F874
:10135000201200F04DF8E0B200F04AF8301200F030
:1013600047F8F0B200F044F82B2000F059F82812AA
:1013700000F03EF8E8B200F03BF8381200F038F820
:10138000F8B200F035F82C2000F04AF8BDE8F08102
:1013900070B504460025102C01D1C50100E00025E0
:1013A00001218803FFF7FEFA00214FF48040FFF788
:1013B000F9FA00200C4908804FF4827048800846F2
:1013C00085800220C88001200881400248810020D9
:1013D0008881C881072008820448FFF79AFB012111
:1013E0000248FFF773FB70BD20000010003800407A
:1013F00010B504464FF480510848FFF735FA4FF412
:1014000000610648FFF732FA2046FFF767FE4FF407
:1014100080510248FFF72AFA10BD00000004024084
:1014200010B504464FF480510848FFF71DFA4FF4F9
:1014300000610648FFF718FA2046FFF74FFE4FF409
:1014400080510248FFF712FA10BD0000000402406C
:101450004FF4A060FFF77AFAA820FFF74DFD4FF494
:10146000E13000F029F8FFF70DFA0FA0FEF7FEFEBD
:10147000FFF700FA4FF47840FFF722FA4FF47A7042
:10148000FFF758FD0EE04FF4FC60FFF719FA4FF636
:10149000FF70FFF715FA1F20FFF712FA4FF478409C
:1014A000FFF70EFAEFE7000073797374656D20693A
:1014B0006E6974210D0A000010B588B00446012140
:1014C0000846FFF74FFA01211020FFF77BFA0722A9
:1014D00009212248FFF7A5F907220A211F48FFF733
:1014E000A0F94FF4C060069002208DF81C008DF822
:1014F0001D0000208DF81E0001208DF81F0006A998
:101500001648FFF746F902940020ADF80C00ADF83C
:101510000E00ADF81000ADF814000C20ADF812006C
:1015200002A90F48FFF774FC01210D48FFF714FCD6
:10153000012240F225510A48FFF744FC25208DF88E
:10154000040003208DF805008DF8060001208DF8B9
:10155000070001A8FFF7BEF908B010BD0000024067
:10156000001001404FF04070E1EE100A704700009B
:10157000A01500080000001020000000C4010008B1
:10158000A01500080000002000C20100E0010008D2
:10159000C01500082000001040070000E00100080E
:1015A000000000000000000000000000000000003B
:1015B00000000102030401020304060708090000F9
:040000050800018965
:00000001FF
